:100000000C942A000C943F000C943F000C943F0089
:100010000C943F000C943F000C943F000C943F0064
:100020000C943F000C943F000C943F000C943F0054
:100030000C943F000C943F000C943F000C943F0044
:100040000C943F000C943F000C943F000C943F0034
:100050000C943F0011241FBECFE5D8E0DEBFCDBF1A
:1000600010E0A0E6B0E0E4E6F9E002C005900D92F1
:10007000A63CB107D9F70E9441000C94B0040C943F
:100080000000CF93DF93CDB7DEB72E970FB6F8946D
:10009000DEBF0FBECDBF0E94E4020E941A020E9482
:1000A000220388E0E8EBF0E0DE01119601900D926A
:1000B0008A95E1F786E0E0ECF0E0DE011996019028
:1000C0000D928A95E1F70E946B01811143C010E007
:1000D0003EC081E00E94B60280E790E00E94C80224
:1000E00060E081E00E94D5020E94050181E00E944B
:1000F000B6028EE790E00E94C80260E081E00E94B4
:10010000D5020E943B01182F81E00E94B602112304
:1001100041F080E990E00E94C80281E00E942D0336
:1001200007C08FE990E00E94C80280E00E942D0382
:100130002FEF83ED90E3215080409040E1F700C025
:10014000000080E00E943E0381E00E943E031123F4
:1001500009F4BFCF10E031C081E00E94B60288EA06
:1001600090E00E94C80260E081E00E94D5020E94F7
:100170003B01182F81E00E94B602112341F0CE010D
:1001800001960E94C80281E00E942D0307C0CE01A3
:1001900009960E94C80280E00E942D032FEF83ED94
:1001A00090E3215080409040E1F700C0000080E0E3
:1001B0000E943E0381E00E943E03112369F2FFCFBB
:1001C0000F931F93CF938C01C0E019C00E9445028A
:1001D0008823E1F30E946702F801EC0FF11D808390
:1001E0000E9445028111FCCF8FE493EC0197F1F757
:1001F00000C000008AE290E00E94C502CF5FC530D7
:1002000028F3CF911F910F9108951F93CF93DF9300
:1002100000D000D01F92CDB7DEB7CE0101960E946C
:10022000E00010E012C0812F90E0E1E0F0E0EC0F80
:10023000FD1FE80FF91F60810E94A40481EE94E085
:100240000197F1F700C000001F5F153060F36AEA04
:100250008FEF90E00E94A40481EE94E00197F1F703
:1002600000C000000F900F900F900F900F90DF9143
:10027000CF911F910895FF920F931F93CF93DF9318
:1002800000D000D01F92CDB7DEB7CE0101960E94FC
:10029000E000F12C0FC00F2D10E0C8010E949B045C
:1002A000E1E0F0E0EC0FFD1FE00FF11F90818913FA
:1002B00006C0F39484E08F1570F781E001C080E000
:1002C0000F900F900F900F900F90DF91CF911F9193
:1002D0000F91FF9008958FEF90E00E949B0491E0B2
:1002E0008A3A09F090E0892F089540E060E081E0CB
:1002F0000E94BC0340E061E081E00E94BC0340E05A
:1003000062E081E00E94BC0340E063E081E00E9483
:10031000BC03089564E081E00E9429048823A1F0D1
:1003200065E081E00E942904882381F066E081E095
:100330000E942904882361F067E081E00E9429047B
:10034000882341F08FEF089580E0089581E00895BB
:1003500082E0089583E00895CF93C82F40E060E0E5
:1003600081E00E94BC0341E061E081E00E94BC03A7
:1003700041E062E081E00E94BC0341E063E081E093
:100380000E94BC030E948A018C1709F44AC041E014
:1003900060E081E00E94BC0340E061E081E00E94F7
:1003A000BC0341E062E081E00E94BC0341E063E005
:1003B00081E00E94BC030E948A01C817A1F141E0BC
:1003C00060E081E00E94BC0341E061E081E00E94C6
:1003D000BC0340E062E081E00E94BC0341E063E0D6
:1003E00081E00E94BC030E948A01C817F1F041E03D
:1003F00060E081E00E94BC0341E061E081E00E9496
:10040000BC0341E062E081E00E94BC0340E063E0A5
:1004100081E00E94BC030E948A01C81308C083E0E7
:1004200007C080E005C081E003C082E001C08FEF1B
:10043000CF91089540E060E081E00E944F0340E0EA
:1004400061E081E00E944F0340E062E081E00E94B1
:100450004F0340E063E081E00E944F0341E064E02D
:1004600081E00E944F0341E065E081E00E944F037C
:1004700041E066E081E00E944F0341E067E081E0F7
:100480000E944F030E947501089564E081E00E947C
:1004900029048823A1F065E081E00E9429048823D3
:1004A00081F066E081E00E942904882361F067E022
:1004B00081E00E942904882341F080E0089581E0D2
:1004C000089581E0089581E0089581E00895CF9333
:1004D000DF930E948A01D82F0E94AC01C82F0E948E
:1004E0007501C43070F4D43070F4EC2FF0E0EE0FEE
:1004F000FF1FEE0FFF1FE05AFF4FED0FF11D808130
:1005000003C08FEF01C08FEF2FEF30E792E0215053
:1005100030409040E1F700C00000DF91CF91089596
:1005200041E062E082E00E94BC038FE99FE0019716
:10053000F1F700C0000040E062E082E00E94BC03EE
:100540008FE39FE10197F1F700C000000895CF937A
:10055000C82F41E060E082E00E94BC036C2F83E082
:100560000E948B040E949002CF910895CF93C82FD0
:1005700040E060E082E00E94BC036C2F83E00E94B8
:100580008B040E949002CF9108950E94A7020895C3
:10059000CF93DF93EC0103C00E94C50221968881AE
:1005A0008111FACFDF91CF910895882319F081301E
:1005B00031F0089580E8860F0E94B602089580EC1D
:1005C000860F0E94B602089560E083E00E946704EF
:1005D00040E060E082E00E944F0340E061E082E0A2
:1005E0000E944F0340E062E082E00E944F0340E03F
:1005F00061E082E00E94BC038FE59AEE0197F1F77B
:1006000000C0000080E30E94B6028FE19EE40197E3
:10061000F1F700C0000080E30E94B6028FE891E08D
:100620000197F1F700C0000080E30E94B6028DE060
:100630000E94B60288E30E94B60260E080E00E9459
:10064000D502089540E060E080E00E944F0340E062
:1006500061E080E00E944F030895882319F0813003
:1006600039F0089541E060E080E00E94BC03089505
:1006700041E061E080E00E94BC030895882319F006
:10068000813039F0089540E060E080E00E94BC03D2
:10069000089540E061E080E00E94BC03089581304D
:1006A00001F130F08230B1F1833009F44CC008958B
:1006B00041110BC02AB381E090E002C0880F991F5E
:1006C0006A95E2F7822B8ABB08952AB381E090E015
:1006D00002C0880F991F6A95E2F7809582238ABB32
:1006E000089541110BC027B381E090E002C0880F4C
:1006F000991F6A95E2F7822B87BB089527B381E0A3
:1007000090E002C0880F991F6A95E2F780958223D6
:1007100087BB089541110BC024B381E090E002C073
:10072000880F991F6A95E2F7822B84BB089524B342
:1007300081E090E002C0880F991F6A95E2F78095EA
:10074000822384BB089541110BC021B381E090E066
:1007500002C0880F991F6A95E2F7822B81BB08952A
:1007600021B381E090E002C0880F991F6A95E2F7FB
:100770008095822381BB0895813001F130F0823071
:10078000B1F1833009F44CC00895413059F42BB3D2
:1007900081E090E002C0880F991F6A95E2F7822BF2
:1007A0008BBB08952BB381E090E002C0880F991FA6
:1007B0006A95E2F7809582238BBB0895413059F406
:1007C00028B381E090E002C0880F991F6A95E2F794
:1007D000822B88BB089528B381E090E002C0880F87
:1007E000991F6A95E2F78095822388BB089541306E
:1007F00059F425B381E090E002C0880F991F6A95F3
:10080000E2F7822B85BB089525B381E090E002C01A
:10081000880F991F6A95E2F78095822385BB08951A
:10082000413059F422B381E090E002C0880F991F53
:100830006A95E2F7822B82BB089522B381E090E0B3
:1008400002C0880F991F6A95E2F78095822382BBC8
:100850000895813089F028F08230C9F0833011F199
:100860002CC089B390E002C0959587956A95E2F710
:1008700080FF25C081E0089586B390E002C0959581
:1008800087956A95E2F780FF1CC081E0089583B3E5
:1008900090E002C0959587956A95E2F780FF13C0B6
:1008A00081E0089580B390E002C0959587956A95A0
:1008B000E2F780FF0AC081E0089580E0089580E0BB
:1008C000089580E0089580E0089580E008958130E3
:1008D00069F028F0823089F08330B1F00895611119
:1008E00003C08FEF8ABB08951ABA0895611103C03F
:1008F0008FEF87BB089517BA0895611103C08FEF7A
:1009000084BB089514BA0895611103C08FEF81BBB1
:10091000089511BA0895813041F028F0823039F0FD
:10092000833039F008956BBB089568BB089565BBAB
:10093000089562BB0895E199FECF8EBB9FBB8CB337
:1009400081608CBB8DB30895E199FECF8EBB9FBBB8
:100950006DBB8CB384608CBB8CB382608CBB089500
:04096000F894FFCF39
:100964003132334134353642373839432A3023441F
:100974005365742050617373776F72643A00436FE8
:100984006E6669726D2050617373776F72643A009A
:1009940050617373776F7264205361766564004DA0
:1009A40069736D6174636800456E7465722050618B
:1009B4007373776F72643A00436F72726563740085
:0609C40057726F6E670020
:00000001FF
